:1000000000000120B5020000DD020000DF02000058
:10001000E1020000E3020000E50200000000000031
:10002000000000000000000000000000E7020000E7
:10003000E902000000000000EB020000ED020000F9
:10004000EF020000EF020000EF020000EF020000EC
:10005000EF020000EF020000EF020000EF020000DC
:10006000EF020000EF020000EF020000EF020000CC
:10007000EF020000EF020000EF020000EF020000BC
:10008000EF020000EF020000EF020000EF020000AC
:10009000EF020000EF020000EF020000EF0200009C
:1000A000EF020000EF020000EF020000EF0200008C
:1000B000EF020000EF02000000000000000000005E
:1000C000EF020000EF020000EF020000EF0200006C
:1000D000EF020000EF020000EF020000000000004D
:1000E0000000000000000000000000000000000010
:1000F0000000000000000000000000000000000000
:1001000000000000000000000000000000000000EF
:1001100000000000000000000000000000000000DF
:1001200000000000000000000000000000000000CF
:1001300000000000000000000000000000000000BF
:1001400000000000000000000000000000000000AF
:10015000000000000000000000000000000000009F
:10016000000000000000000000000000000000008F
:10017000000000000000000000000000000000007F
:10018000000000000000000000000000000000006F
:10019000000000000000000000000000000000005F
:1001A000000000000000000000000000000000004F
:1001B000000000000000000000000000000000003F
:1001C000000000000000000000000000000000002F
:1001D000000000000000000000000000000000001F
:1001E000000000000000000000000000000000000F
:1001F00000000000000000000000000000000000FF
:1002000010B5054C237833B9044B13B10448AFF350
:1002100000800123237010BD6C000020000000004E
:100220000C08000008B5034B1BB103490348AFF3AA
:10023000008008BD00000000700000200C080000D5
:10024000154B002B08BF134B9D46A3F5803A0021A8
:100250008B460F461348144A121A00F0B9FA0F4B96
:10026000002B00D098470E4B002B00D09847002061
:10027000002104000D000D48002802D00C48AFF307
:10028000008000F081FA2000290000F071F800F0F1
:1002900067FA00BF00000800000001200000000015
:1002A000000000006C00002088000020000000001A
:1002B000000000000649074A074B9B1A03DD043B78
:1002C000C858D050FBDC00F06BF8FFF7B9FF000016
:1002D00018080000000000206C000020FEE7FEE788
:1002E000FEE7FEE7FEE7FEE7FEE7FEE7FEE7FEE7E6
:1002F000074B4FF0A041185CD1F804350122824031
:1003000022EA03001340C1F80805C1F80C35704714
:10031000FC070000C20730B41AD54FF0A0430322F7
:10032000C3F844274FF40035C3F848274FF480241E
:10033000C3F84C274FF40021C3F850274FF4801224
:10034000C3F80855C3F80845C3F80815C3F80825CD
:1003500083070AD54FF0A0430C22C3F83427C3F813
:100360003827C3F83C27C3F8402730BC704700BF8C
:1003700070B50120094DFFF7CDFF45F001050026BE
:100380003046FFF7B5FF4FF4FA744FF47A40A847B0
:10039000013CFAD10136042EF2D1F0E7000800004A
:1003A00030B4904B1B78062B20D08F4B1B68062B4C
:1003B00000F085808D4AD2F8883043F47003C2F88B
:1003C0008830BFF34F8FBFF36F8F4FF01023D3F8F8
:1003D0000022002AC0F28681D3F80432002BC0F23A
:1003E0008181834B834A1A6030BC7047824B1B6803
:1003F0001D07DAD1814B1B6803F0F002302A00F0B0
:100400009E8003F0E003402B00F099807B4B1B683B
:1004100003F0F003302B00F0B980784B1B6803F039
:10042000F002302A56D003F0E003402B52D0734B39
:100430001B6803F0F003302B00F0B6806F4B1B6895
:1004400003F0F002302A66D003F0E003402B62D0C4
:100450006A4B1B6803F0F003302B00F0B580674B4C
:100460001B6803F0F003302B79D0644B1B6803F05A
:10047000F003502B00F0E480604B1B6803F0F002A7
:10048000302A37D003F0E003402B33D05B4B1B689E
:1004900003F0F002302A03D003F0E003402B84D1B4
:1004A0004FF08043D3F80024D20744BF6FF001021D
:1004B000C3F800244C4B1B68062B7FF47BAF504BDA
:1004C0001B68062B7FF476AF4E4A136843F48063B3
:1004D00013606FE74C4B434A1B6812784B49C3F3D8
:1004E0004233062A0B6048D1434B1B6819077FF43F
:1004F0005CAF9CE7464A3B4B12681B78454902F0CB
:100500004F02062B0A607FF450AF3B4B1B68190764
:100510007FF44BAFBAE74FF080430022C3F80C21C1
:10052000C3F81021C3F838252E4B1B78062B7FF417
:100530003CAF314B1B681B077FF437AF88E7364B66
:10054000284A1B6812783549C3F30423062A0B6036
:10055000EAD1294B1B681C077FF427AF56E7304CC4
:10056000204A304912783048304B05252560012556
:100570000D6000243F2104601960062A7FF415AF46
:100580001D4B1B681C077FF410AF6EE7154B284A04
:100590001B7828491160062B7FF407AF164B1B68A8
:1005A00018077FF402AF38E723490E4BCA681B785F
:1005B00022F08072062BCA607FF4F7AE0E4B1B68E8
:1005C0001A077FF4F2AE39E7064B1C4A1B78032169
:1005D000062B11607FF4E9AE074B1B681D077FF403
:1005E000E4AE3CE7E00F00F03001001000ED00E069
:1005F000000000200090D003E40F00F0E80F00F0AE
:10060000340100103C170040440200103C0500403B
:1006100058020010E40E0040240300104035014051
:1006200010560040885600401856004014560040AE
:1006300074C007400DF0ADBAF0ED00E0A005004039
:100640004FF08053404AD3F80414C2F82015D3F871
:100650000814C2F82415D3F80C14C2F82815D3F8DE
:100660001014C2F82C15D3F81414C2F83015D3F8AE
:100670001814C2F83415D3F81C14C2F84015D3F876
:100680002014C2F84415D3F82414C2F84815D3F83E
:100690002814C2F84C15D3F82C14C2F85015D3F80E
:1006A0003014C2F85415D3F83414C2F86015D3F8D6
:1006B0003814C2F86415D3F83C14C2F86815D3F89E
:1006C00040142248C2F86C15D3F844140378C2F8D9
:1006D0007015062B7FF469AE1D4B1B6818077FF45D
:1006E00064AEC9E61B4B0122C3F80425D3F80024ED
:1006F000002AFBD04FF0102315221649C3F8002220
:10070000D1F80034002BFBD04FF010221521114BF3
:10071000C2F80412D3F80024002AFBD000220D49AD
:10072000C3F80425D1F80034002BFBD0BFF34F8F62
:1007300009490A4BCA6802F4E0621343CB60BFF375
:100740004F8F00BFFDE700BF00C00040E00F00F08A
:10075000E40F00F000E0014000ED00E00400FA05C5
:1007600008B5074B044613B10021AFF30080054BD9
:100770001868836A03B19847204600F031F800BF3B
:10078000000000000808000070B50D4E0D4CA41BC1
:10079000A4100025A54209D10B4E0C4C00F022F804
:1007A000A41BA4100025A54205D170BD56F8253024
:1007B00098470135EEE756F8253098470135F2E7BE
:1007C0006400002064000020640000206800002015
:1007D00002440346934200D1704703F8011BF9E736
:1007E000FEE700BFF8B500BFF8BC08BC9E467047E6
:1007F000F8B500BFF8BC08BC9E4670471112131430
:100800000338FDD8704700000400002000000000FD
:0808100030FAFF7F0100000037
:100818000090D0030000000000000000000000006D
:1008280000000000000000000000000000000000C0
:1008380000000000000000000000000000000000B0
:1008480000000000000000000000000000000000A0
:100858000000000000000000000000000000000090
:100868000000000000000000000000000000000080
:0C0878000000000025020000010200004A
:04000003000002B542
:00000001FF
